:020000040000FA
:10000000C00B0020850100008D0100008F01000061
:1000100000000000000000000000000000000000E0
:10002000000000000000000000000000910100003E
:100030000000000000000000930100009530000067
:100040009701000097010000970100009701000050
:100050009701000097010000970100009701000040
:100060009701000097010000970100009701000030
:100070009701000097010000970100009701000020
:100080009701000097010000970100009701000010
:100090000000000000000000000000000000000060
:1000A0000000000000000000000000000000000050
:1000B0009701000000000000970100009701000078
:1000C00000F002F800F032F80CA030C8083824180C
:1000D0002D18A246671EAB4654465D46AC4201D180
:1000E00000F024F87E460F3E0FCCB6460126334280
:1000F00000D0FB1AA246AB4633431847C44F00005A
:10010000E44F00000023002400250026103A01D30C
:1001100078C1FBD8520700D330C100D50B607047BF
:100120001FB500F061F81FBD10B510BD00F014F947
:100130001146FFF7F5FF02F0F9FF00F02CF903B4C8
:10014000FFF7F2FF03BC00F033F9000030B40C49B4
:100150000C684A6823681068C0181060241D121DBE
:100160008C4207D28A4208D20C604A6030BC400000
:10017000400870470C00DC3CF6E70A00DC3AF3E785
:100180004C0300200748804707480047FEE7FEE78A
:10019000FEE7FEE7FEE7FEE704480549054A064B91
:1001A00070470000E1300000C1000000C0030020E3
:1001B000C00B0020C0070020C00700200B4A30B54C
:1001C00011460B4C60310B46DC3B0CC1372106E07D
:1001D000020C8D0012185A51064A504300190A4663
:1001E000491E002AF4DC30BD0120E7E7EC020020C4
:1001F000E119D666CD0D0100002203098B422CD3F4
:10020000030A8B4211D300239C464EE003460B4366
:100210003CD4002243088B4231D303098B421CD3C8
:10022000030A8B4201D394463FE0C3098B4201D3BA
:10023000CB01C01A524183098B4201D38B01C01AF2
:10024000524143098B4201D34B01C01A5241030969
:100250008B4201D30B01C01A5241C3088B4201D318
:10026000CB00C01A524183088B4201D38B00C01AC5
:10027000524143088B4201D34B00C01A5241411AEC
:1002800000D201465241104670475DE0CA0F00D0CF
:100290004942031000D34042534000229C460309C8
:1002A0008B422DD3030A8B4212D3FC22890112BA4E
:1002B000030A8B420CD3890192118B4208D3890126
:1002C00092118B4204D389013AD0921100E089093E
:1002D000C3098B4201D3CB01C01A524183098B421F
:1002E00001D38B01C01A524143098B4201D34B0108
:1002F000C01A524103098B4201D30B01C01A52416B
:10030000C3088B4201D3CB00C01A524183088B42F1
:1003100001D38B00C01A5241D9D243088B4201D37A
:100320004B00C01A5241411A00D201466346524165
:100330005B10104601D34042002B00D54942704764
:1003400063465B1000D3404201B50020C046C04662
:1003500002BD704770477047754600F025F8AE46FD
:10036000050069465346C008C000854618B020B550
:10037000FFF712FF60BC00274908B6460026C0C53B
:10038000C0C5C0C5C0C5C0C5C0C5C0C5C0C5403D4D
:1003900049008D46704710B50446C046C046204609
:1003A000FFF7CDFE10BD0000004870475403002049
:1003B00001491820ABBEFEE726000200704770B569
:1003C0008C180578401C6B075B0F01D10378401C2B
:1003D0002A1106D10278401C03E00678401C0E70FA
:1003E000491C5B1EF9D12B0705D40023521E0DD4E6
:1003F0000B70491CFAE70378401CCB1A921C03E0EF
:100400001D780D70491C5B1C521EF9D5A142D8D332
:10041000002070BD70B505460E461446230002F05C
:1004200067FE17D70D0E19242F3A45505B66717C75
:1004300087929DA8B3BEC9D4D5D6D700C8E0022202
:100440003146284600F0EBFA03223146284600F0F8
:1004500055FFBDE003223146284600F0E0FA0222B3
:100460003146284600F04AFFB2E0042231462846D1
:1004700000F0D5FA05223146284600F03FFFA7E0FC
:1004800005223146284600F0CAFA0722314628469E
:1004900000F034FF9CE006223146284600F0BFFA07
:1004A00004223146284600F029FF91E00722314618
:1004B000284600F0B4FA06223146284600F01EFF16
:1004C00086E008223146284600F0A9FA0922314682
:1004D000284600F013FF7BE009223146284600F051
:1004E0009EFA0A223146284600F008FF70E00A22F0
:1004F0003146284600F093FA0B223146284600F098
:10050000FDFE65E00B223146284600F088FA0822FD
:100510003146284600F0F2FE5AE00C2231462846C9
:1005200000F07DFA0F223146284600F0E7FE4FE04A
:100530000D223146284600F072FA0C223146284638
:1005400000F0DCFE44E00E223146284600F067FA57
:100550000D223146284600F0D1FE39E00F22314607
:10056000284600F05CFA0E223146284600F0C6FE0E
:100570002EE010223146284600F051FA1122314671
:10058000284600F0BBFE23E011223146284600F049
:1005900046FA10223146284600F0B0FE18E012223A
:1005A0003146284600F03BFA13223146284600F037
:1005B000A5FE0DE013223146284600F030FA122243
:1005C0003146284600F09AFE02E000BF00BF00BF9F
:1005D00000BF70BD70B505460E461446230002F0FC
:1005E00087FD14D20B0C17222D38434E59646F7AB5
:1005F00085909BA6B1BCC7D2C5E0022231462846F1
:1006000000F0CFFB03223146284601F087F8BAE01C
:1006100003223146284600F0C4FB02223146284618
:1006200001F07CF8AFE004223146284600F0B9FB27
:1006300005223146284601F071F8A4E00522314632
:10064000284600F0AEFB07223146284601F066F846
:1006500099E006223146284600F0A3FB04223146E9
:10066000284601F05BF88EE007223146284600F06C
:1006700098FB06223146284601F050F883E0082214
:100680003146284600F08DFB09223146284601F00C
:1006900045F878E009223146284600F082FB0A221C
:1006A0003146284601F03AF86DE00A2231462846E4
:1006B00000F077FB0B223146284601F02FF862E06C
:1006C0000B223146284600F06CFB082231462846B2
:1006D00001F024F857E00C223146284600F061FB77
:1006E0000F223146284601F019F84CE00D22314620
:1006F000284600F056FB0C223146284601F00EF841
:1007000041E00E223146284600F04BFB0D223146D7
:10071000284601F003F836E00F223146284600F063
:1007200040FB0E223146284600F0F8FF2BE0102255
:100730003146284600F035FB11223146284600F0AC
:10074000EDFF20E011223146284600F02AFB10225E
:100750003146284600F0E2FF15E0122231462846D5
:1007600000F01FFB13223146284600F0D7FF0AE0B5
:1007700013223146284600F014FB12223146284647
:1007800000F0CCFF00BF00BF70BD00B501460B00FC
:1007900002F0AEFC14300B0C0E10121416181A1CBA
:1007A0001E20222426282A2C2E3023E0032021E09C
:1007B00002201FE005201DE007201BE0042019E0B7
:1007C000062017E0092015E00A2013E00B2011E0B5
:1007D00008200FE00F200DE00C200BE00D2009E0B9
:1007E0000E2007E0112005E0102003E0132001E0B7
:1007F000122000BF00BF00BD70B588B000260020E9
:1008000069460871002418E0002101AA601C1154F7
:1008100001250EE001A9601C095C0D2060431A4A05
:100820008018405D0818C1B201AA601C1154681CF0
:10083000C5B20C2DEEDB601CC4B2182CE4DB18240E
:100840001BE001A8005D0B2815D1204600F0D6F86A
:100850000E4800880B300D4908800126601EC5B285
:1008600004E0284601F01CF9681EC5B2002DF8DC32
:10087000FFF7C2FF03E0601EC4B2002CE1DC00BF42
:10088000304608B070BD00000E00002008000020B7
:10089000FFB5D3B01E46002700205290002418E078
:1008A000002512E00D2060432D494018415D0D20C8
:1008B00060436A46801841550D206043284940181E
:1008C000405DC01987B2681CC5B20D2DEADB601C03
:1008D000C4B2192CE4DB012E06D0022E09D0032E5F
:1008E0000CD0042E14D10EE053A807C802F024FA4D
:1008F0000EE053A807C802F03FFA09E053A807C862
:1009000002F05AFA04E053A807C8FFF763FE00BFDD
:1009100000BF00241AE0002514E00D2060431049B8
:100920004018415D5298081880B252900D206043E3
:1009300069464018415D0D206043094A80184155C1
:10094000681CC5B20D2DE8DB601CC4B2192CE2DBBB
:100950005298874202D0012057B0F0BD0020FBE73B
:100960000E000020F8B504460D461B480078042808
:1009700015D1132C13DD601E0B2148431749411874
:10098000681E0A5C2946204600F0CEFB0021601E4E
:100990000B225043114A8218681E11541BE0104864
:1009A0000D266643761EB3B20D266E43761EB2B296
:1009B0000D2666430C3EB1B20D266E430C3E0090F0
:1009C000B0B201F091FB0021601E0B225043034A9C
:1009D0008218681E1154F8BD0C000020660100202A
:1009E000FFFF000010B50023421E0D246243024C9D
:1009F0001219535410BD00000E00002070B50546BA
:100A0000012409E021462846FFF7ECFF214628464D
:100A1000FFF7A8FF601CC4B20C2CF3DB70BD70B5EF
:100A200004460D461646330002F062FB17210D22E4
:100A3000364A61768DA2B7CBE1FDFCFBFAF9F8F7F7
:100A4000F6F5F4F3210029462046FFF78BFF611CE1
:100A500088B22946FFF786FF681C81B22046FFF75F
:100A600081FF6A1C91B2621C90B2FFF77BFF96E196
:100A700029462046FFF776FF611C88B22946FFF71A
:100A800071FFA11C88B22946FFF76CFFE11C88B2F8
:100A90002946FFF767FF82E129462046FFF762FFFC
:100AA000681C81B22046FFF75DFFA81C81B220467A
:100AB000FFF758FFE81C81B22046FFF753FF6EE1B5
:100AC000611C88B22946FFF74DFF681C81B22046A1
:100AD000FFF748FF6A1C91B2621C90B2FFF742FF19
:100AE0006A1C91B2A21C90B2FFF73CFF57E16A1C4E
:100AF00091B2621C90B2FFF735FF29462046FFF7FE
:100B000031FF681C81B22046FFF72CFFA81C81B280
:100B10002046FFF727FF42E1681C81B22046FFF71D
:100B200021FF611C88B22946FFF71CFF6A1C91B2A5
:100B3000621C90B2FFF716FFAA1C91B2621C90B221
:100B4000FFF710FF2BE16A1C91B2621C90B2FFF715
:100B500009FF29462046FFF705FF611C88B2294698
:100B6000FFF700FFA11C88B22946FFF7FBFE16E144
:100B700029462046FFF7F6FE681C81B22046FFF7A3
:100B8000F1FEA81C81B22046FFF7ECFEAA1C91B230
:100B9000621C90B2FFF7E6FE01E129462046FFF70E
:100BA000E1FE681C81B22046FFF7DCFE611C88B2C2
:100BB0002946FFF7D7FEA11C88B22946FFF7D2FECF
:100BC000EDE029462046FFF7CDFE611C88B229469C
:100BD000FFF7C8FE6A1C91B2621C90B2FFF7C2FE1A
:100BE000AA1C91B2621C90B2FFF7BCFED7E0681C51
:100BF00081B22046FFF7B6FE6A1C91B2621C90B229
:100C0000FFF7B0FE6A1C91B2A21C90B2FFF7AAFED9
:100C10000AE0BFE0BDE0BBE0A4E08DE076E05FE08D
:100C200048E033E01DE005E0A11C88B22946FFF74B
:100C300099FEB4E0611C88B22946FFF793FE6A1C56
:100C400091B2621C90B2FFF78DFEAA1C91B2621C99
:100C500090B2FFF787FEA81C81B22046FFF782FE04
:100C60009DE029462046FFF77DFE611C88B229469B
:100C7000FFF778FEA11C88B22946FFF773FE6A1CB5
:100C800091B2A21C90B2FFF76DFE88E02946204683
:100C9000FFF768FE611C88B22946FFF763FE681CF7
:100CA00081B22046FFF75EFEA81C81B22046FFF706
:100CB00059FE74E029462046FFF754FE681C81B2B5
:100CC0002046FFF74FFE6A1C91B2621C90B2FFF7FC
:100CD00049FE6A1C91B2A21C90B2FFF743FE5EE08F
:100CE000611C88B22946FFF73DFE6A1C91B2621C66
:100CF00090B2FFF737FE681C81B22046FFF732FE44
:100D0000A81C81B22046FFF72DFE48E02946204668
:100D1000FFF728FE611C88B22946FFF723FE6A1CF4
:100D200091B2621C90B2FFF71DFE6A1C91B2A21C28
:100D300090B2FFF717FE32E029462046FFF712FE79
:100D4000681C81B22046FFF70DFE6A1C91B2621C3E
:100D500090B2FFF707FEAA1C91B2621C90B2FFF797
:100D600001FE1CE0681C81B22046FFF7FBFD6A1CF7
:100D700091B2621C90B2FFF7F5FD611C88B2294662
:100D8000FFF7F0FDA11C88B22946FFF7EBFD06E056
:100D900000BF00BF29462046FFF7E4FD00BF00BFAB
:100DA00070BD70B504460D461646330002F0A0F93A
:100DB00017210D22364A61768DA2B7CBE1FDFCFBEF
:100DC000FAF9F8F7F6F5F4F3210029462046FFF783
:100DD00009FE611C88B22946FFF704FE681C81B237
:100DE0002046FFF7FFFD6A1C91B2621C90B2FFF72C
:100DF000F9FD96E129462046FFF7F4FD611C88B213
:100E00002946FFF7EFFDA11C88B22946FFF7EAFD4E
:100E1000E11C88B22946FFF7E5FD82E1294620461C
:100E2000FFF7E0FD681C81B22046FFF7DBFDA81C40
:100E300081B22046FFF7D6FDE81C81B22046FFF7BD
:100E4000D1FD6EE1611C88B22946FFF7CBFD681C1D
:100E500081B22046FFF7C6FD6A1C91B2621C90B2B7
:100E6000FFF7C0FD6A1C91B2A21C90B2FFF7BAFD59
:100E700057E16A1C91B2621C90B2FFF7B3FD29469C
:100E80002046FFF7AFFD681C81B22046FFF7AAFDA0
:100E9000A81C81B22046FFF7A5FD42E1681C81B283
:100EA0002046FFF79FFD611C88B22946FFF79AFD97
:100EB0006A1C91B2621C90B2FFF794FDAA1C91B219
:100EC000621C90B2FFF78EFD2BE16A1C91B2621C8E
:100ED00090B2FFF787FD29462046FFF783FD611C8E
:100EE00088B22946FFF77EFDA11C88B22946FFF78C
:100EF00079FD16E129462046FFF774FD681C81B292
:100F00002046FFF76FFDA81C81B22046FFF76AFD5F
:100F1000AA1C91B2621C90B2FFF764FD01E1294660
:100F20002046FFF75FFD681C81B22046FFF75AFD9F
:100F3000611C88B22946FFF755FDA11C88B22946DD
:100F4000FFF750FDEDE029462046FFF74BFD611C01
:100F500088B22946FFF746FD6A1C91B2621C90B226
:100F6000FFF740FDAA1C91B2621C90B2FFF73AFD58
:100F7000D7E0681C81B22046FFF734FD6A1C91B2AD
:100F8000621C90B2FFF72EFD6A1C91B2A21C90B2B7
:100F9000FFF728FD0AE0BFE0BDE0BBE0A4E08DE084
:100FA00076E05FE048E033E01DE005E0A11C88B298
:100FB0002946FFF717FDB4E0611C88B22946FFF708
:100FC00011FD6A1C91B2621C90B2FFF70BFDAA1CC6
:100FD00091B2621C90B2FFF705FDA81C81B22046B9
:100FE000FFF700FD9DE029462046FFF7FBFC611C52
:100FF00088B22946FFF7F6FCA11C88B22946FFF704
:10100000F1FC6A1C91B2A21C90B2FFF7EBFC88E0E5
:1010100029462046FFF7E6FC611C88B22946FFF707
:10102000E1FC681C81B22046FFF7DCFCA81C81B201
:101030002046FFF7D7FC74E029462046FFF7D2FC94
:10104000681C81B22046FFF7CDFC6A1C91B2621C7D
:1010500090B2FFF7C7FC6A1C91B2A21C90B2FFF7D6
:10106000C1FC5EE0611C88B22946FFF7BBFC6A1C2C
:1010700091B2621C90B2FFF7B5FC681C81B22046A9
:10108000FFF7B0FCA81C81B22046FFF7ABFC48E09C
:1010900029462046FFF7A6FC611C88B22946FFF7C7
:1010A000A1FC6A1C91B2621C90B2FFF79BFC6A1C07
:1010B00091B2A21C90B2FFF795FC32E0294620467F
:1010C000FFF790FC681C81B22046FFF78BFC6A1C7E
:1010D00091B2621C90B2FFF785FCAA1C91B2621C0F
:1010E00090B2FFF77FFC1CE0681C81B22046FFF73E
:1010F00079FC6A1C91B2621C90B2FFF773FC611C10
:1011000088B22946FFF76EFCA11C88B22946FFF77A
:1011100069FC06E000BF00BF29462046FFF762FCDD
:1011200000BF00BF70BD0000FEB504460D46164668
:101130000020674908806748007804281FD1132CD5
:101140001DDD642E1BDA601E0B21484362494118E5
:10115000681E0E5461480D2767437F1EBBB20D27E2
:101160006F437F1EBAB20D2767430C3FB9B20D27FC
:101170006F430C3F0090B8B200F0B6FF95E05548C1
:101180000078042845D1132C43DD642E41DB23DD98
:1011900030466438C1B2601E0B2250434E4A82185A
:1011A000681E115431466439C8B201F095FE0190B1
:1011B0000D2767437F1EBBB20D276F437F1EBAB258
:1011C0000D2767430C3FB9B20D276F430C3F0090CA
:1011D000B8B200F089FF68E0642E66D10021601E7D
:1011E0000B2250433C4A8218681E11543C480D277C
:1011F0006743BBB20D276F43BAB20D2767430D3F5C
:10120000B9B20D276F430D3F0090B8B200F06CFFEC
:101210004BE0002E2BD1FEF799FF07461321FEF776
:10122000F5FF491C601E0B2250432B4A8218681E92
:101230001154611E0B225143274A8A18691E505CC3
:1012400001F04AFE01900D2767437F1EBBB20D27B8
:101250006F437F1EBAB20D2767430C3FB9B20D270B
:101260006F430C3F0090B8B200F03EFF1DE0601EDF
:101270000B21484318494118681E0E54304601F0AE
:101280002BFE01900D2767437F1EBBB20D276F43D6
:101290007F1EBAB20D2767430C3FB9B20D276F43CB
:1012A0000C3F0090B8B200F01FFF0D2767437F1E70
:1012B000BBB20D276F437F1EBAB20D2767430C3FA9
:1012C000B9B20D276F430C3FB8B200F091FEFEBDDE
:1012D000000000200C000020660100203084000087
:1012E000FFFF000010B50123421E0D246243024C93
:1012F0001219535410BD00000E00002070B50446B2
:101300000D461646330001F0F3FE17250D263E5616
:10131000718AA5BED7FCFAF9F8F7F6F5F4F3F2F105
:10132000F0EF2500324629462046FFF7FDFE611CFE
:1013300088B232462946FFF7F7FE681C81B2324672
:101340002046FFF7F1FE6A1C91B2621C90B2324651
:10135000FFF7EAFEE0E1324629462046FFF7E4FEC9
:10136000611C88B232462946FFF7DEFEA11C88B216
:1013700032462946FFF7D8FEE11C88B2324629469C
:10138000FFF7D2FEC8E1324629462046FFF7CCFEE1
:10139000681C81B232462046FFF7C6FEA81C81B207
:1013A00032462046FFF7C0FEE81C81B23246204696
:1013B000FFF7BAFEB0E1611C88B232462946FFF75A
:1013C000B3FE681C81B232462046FFF7ADFE6A1CB0
:1013D00091B2621C90B23246FFF7A6FE6A1C91B22F
:1013E000A21C90B23246FFF79FFE95E16A1C91B2B3
:1013F000621C90B23246FFF797FE324629462046DD
:10140000FFF792FE681C81B232462046FFF78CFE41
:10141000A81C81B232462046FFF786FE7CE1681C9C
:1014200081B232462046FFF77FFE611C88B2324609
:101430002946FFF779FE6A1C91B2621C90B23246CF
:10144000FFF772FEAA1C91B2621C90B23246FFF7FF
:101450006BFE61E16A1C91B2621C90B23246FFF7EA
:1014600063FE324629462046FFF75EFE611C88B2C5
:1014700032462946FFF758FEA11C88B2324629465B
:10148000FFF752FE48E1324629462046FFF74CFE60
:10149000681C81B232462046FFF746FEA81C81B286
:1014A00032462046FFF740FEAA1C91B2621C90B261
:1014B0003246FFF739FE2FE1324629462046FFF734
:1014C00033FE681C81B232462046FFF72DFE611CB8
:1014D00088B232462946FFF727FEA11C88B2324661
:1014E0002946FFF721FE17E110E10EE10CE1F1E0E2
:1014F000D6E0BBE0A0E085E06CE052E036E01AE028
:10150000FFE7324629462046FFF70EFE611C88B2EF
:1015100032462946FFF708FE6A1C91B2621C90B25F
:101520003246FFF701FEAA1C91B2621C90B232460D
:10153000FFF7FAFDF0E0681C81B232462046FFF763
:10154000F3FD6A1C91B2621C90B23246FFF7ECFDCB
:101550006A1C91B2A21C90B23246FFF7E5FDA11CB5
:1015600088B232462946FFF7DFFDD5E0611C88B21C
:1015700032462946FFF7D8FD6A1C91B2621C90B230
:101580003246FFF7D1FDAA1C91B2621C90B23246DE
:10159000FFF7CAFDA81C81B232462046FFF7C4FD02
:1015A000BAE0324629462046FFF7BEFD611C88B2EC
:1015B00032462946FFF7B8FDA11C88B232462946BB
:1015C000FFF7B2FD6A1C91B2A21C90B23246FFF73F
:1015D000ABFDA1E0324629462046FFF7A5FD611C80
:1015E00088B232462946FFF79FFD681C81B2324619
:1015F0002046FFF799FDA81C81B232462046FFF72E
:1016000093FD89E0324629462046FFF78DFD681C90
:1016100081B232462046FFF787FD6A1C91B2621CF8
:1016200090B23246FFF780FD6A1C91B2A21C90B2C4
:101630003246FFF779FD6FE0611C88B232462946D9
:10164000FFF772FD6A1C91B2621C90B23246FFF73E
:101650006BFD681C81B232462046FFF765FDA81C71
:1016600081B232462046FFF75FFD55E032462946FB
:101670002046FFF759FD611C88B232462946FFF724
:1016800053FD6A1C91B2621C90B23246FFF74CFDCA
:101690006A1C91B2A21C90B23246FFF745FD3BE0B6
:1016A000324629462046FFF73FFD681C81B232468C
:1016B0002046FFF739FD6A1C91B2621C90B2324697
:1016C000FFF732FDAA1C91B2621C90B23246FFF7BE
:1016D0002BFD21E0681C81B232462046FFF724FD35
:1016E0006A1C91B2621C90B23246FFF71DFD611C6C
:1016F00088B232462946FFF717FDA11C88B2324650
:101700002946FFF711FD07E000BF00BF324629461A
:101710002046FFF709FD00BF00BF70BD70B504464D
:101720000D461646330001F0E3FC17210D22364A20
:1017300061768DA2B7CBE1FDFCFBFAF9F8F7F6F57F
:10174000F4F3210029462046FFF7CCFD611C88B246
:101750002946FFF7C7FD681C81B22046FFF7C2FD8E
:101760006A1C91B2621C90B2FFF7BCFD96E129465B
:101770002046FFF7B7FD611C88B22946FFF7B2FD8E
:10178000A11C88B22946FFF7ADFDE11C88B22946AD
:10179000FFF7A8FD82E129462046FFF7A3FD681C5C
:1017A00081B22046FFF79EFDA81C81B22046FFF7BC
:1017B00099FDE81C81B22046FFF794FD6EE1611CA3
:1017C00088B22946FFF78EFD681C81B22046FFF7DC
:1017D00089FD6A1C91B2621C90B2FFF783FD6A1CFE
:1017E00091B2A21C90B2FFF77DFD57E16A1C91B245
:1017F000621C90B2FFF776FD29462046FFF772FD86
:10180000681C81B22046FFF76DFDA81C81B22046FE
:10181000FFF768FD42E1681C81B22046FFF762FDD8
:10182000611C88B22946FFF75DFD6A1C91B2621CFB
:1018300090B2FFF757FDAA1C91B2621C90B2FFF75D
:1018400051FD2BE16A1C91B2621C90B2FFF74AFD78
:1018500029462046FFF746FD611C88B22946FFF75E
:1018600041FDA11C88B22946FFF73CFD16E129463F
:101870002046FFF737FD681C81B22046FFF732FD96
:10188000A81C81B22046FFF72DFDAA1C91B2621C54
:1018900090B2FFF727FD01E129462046FFF722FD20
:1018A000681C81B22046FFF71DFD611C88B22946E5
:1018B000FFF718FDA11C88B22946FFF713FDEDE0E4
:1018C00029462046FFF70EFD611C88B22946FFF726
:1018D00009FD6A1C91B2621C90B2FFF703FDAA1CBD
:1018E00091B2621C90B2FFF7FDFCD7E0681C81B298
:1018F0002046FFF7F7FC6A1C91B2621C90B2FFF71A
:10190000F1FC6A1C91B2A21C90B2FFF7EBFC0AE05A
:10191000BFE0BDE0BBE0A4E08DE076E05FE048E042
:1019200033E01DE005E0A11C88B22946FFF7DAFC90
:10193000B4E0611C88B22946FFF7D4FC6A1C91B25E
:10194000621C90B2FFF7CEFCAA1C91B2621C90B24E
:10195000FFF7C8FCA81C81B22046FFF7C3FC9DE03E
:1019600029462046FFF7BEFC611C88B22946FFF7D6
:10197000B9FCA11C88B22946FFF7B4FC6A1C91B2DD
:10198000A21C90B2FFF7AEFC88E029462046FFF784
:10199000A9FC611C88B22946FFF7A4FC681C81B22F
:1019A0002046FFF79FFCA81C81B22046FFF79AFC57
:1019B00074E029462046FFF795FC681C81B220465A
:1019C000FFF790FC6A1C91B2621C90B2FFF78AFC90
:1019D0006A1C91B2A21C90B2FFF784FC5EE0611C0D
:1019E00088B22946FFF77EFC6A1C91B2621C90B255
:1019F000FFF778FC681C81B22046FFF773FCA81C37
:101A000081B22046FFF76EFC48E029462046FFF7EA
:101A100069FC611C88B22946FFF764FC6A1C91B21C
:101A2000621C90B2FFF75EFC6A1C91B2A21C90B2DD
:101A3000FFF758FC32E029462046FFF753FC681CAC
:101A400081B22046FFF74EFC6A1C91B2621C90B234
:101A5000FFF748FCAA1C91B2621C90B2FFF742FC4F
:101A60001CE0681C81B22046FFF73CFC6A1C91B266
:101A7000621C90B2FFF736FC611C88B22946FFF762
:101A800031FCA11C88B22946FFF72CFC06E000BF00
:101A900000BF29462046FFF725FC00BF00BF70BDF0
:101AA00070B504460125B6E0601E0D2148435C492F
:101AB0004018405D002805D10D2060434018405D6E
:101AC00000283DD0601E0D21484355494018405D17
:101AD000012836D10D2060434018405D012830D1E7
:101AE000601E0B2148434F494118681E0E5C0B20B5
:101AF00060434C494118681E095C601E0B2250432C
:101B0000484A8218681E11540B2060434549411809
:101B1000681E0E54601E0B21484342494118681E3E
:101B20000A5C29462046FFF7FFFA0B2161433D4B33
:101B3000CB18691E5A5C611C88B22946FFF7F4FA7B
:101B400067E0601E0D21484335494018405D00287C
:101B50002CD10D2060434018405D012826D1294634
:101B60002046FFF7BFFB611C88B22946FEF73AFF0B
:101B70000B2060432B494118681E095C601E0B2234
:101B80005043284A8218681E1154601E0B21484396
:101B900024494118681E0A5C29462046FFF7C4FA0A
:101BA000611C88B22946FEF7DDFE32E0601E0D2181
:101BB00048431B494018405D01282AD10D2060434D
:101BC0004018405D002824D129462046FEF70AFF30
:101BD000611C88B22946FFF785FB601E0B21484334
:101BE00010494118681E095C0B2060430D4A821899
:101BF000681E115429462046FEF7B4FE0B216143AE
:101C0000084BCB18691E5A5C611C88B22946FFF745
:101C10008BFA681CC5B20C2D00DA45E770BD0000D8
:101C20000E0000206601002070B504460D462946CE
:101C30002046FEF797FE29462046FEF7D3FE012CEC
:101C400016DDA01E0D2148436B494018405D012858
:101C50000ED1611E88B22946FEF784FE611E88B24D
:101C60002946FEF7BFFE65480088401C634908808E
:101C7000182C15DA0D2060435F494018405D01289B
:101C80000ED1611C88B22946FEF76CFE611C88B239
:101C90002946FEF7A7FE59480088401C574908808E
:101CA000012D17DD601E0D21484353494118681E60
:101CB000085C01280ED1681E81B22046FEF752FE54
:101CC000681E81B22046FEF78DFE4C480088401CFD
:101CD0004A4908800B2D17DA601E0D2148434649FA
:101CE0004118681C085C01280ED1681C81B220468E
:101CF000FEF738FE681C81B22046FEF773FE3F48AF
:101D00000088401C3D490880012C1BDD012D19DD98
:101D1000A01E0D21484338494118681E085C01285F
:101D200010D16A1E91B2621E90B2FEF71BFE6A1EAF
:101D300091B2621E90B2FEF755FE30480088401CFA
:101D40002E490880012C1BDD0B2D19DAA01E0D2158
:101D5000484329494118681C085C012810D16A1CB5
:101D600091B2621E90B2FEF7FDFD6A1C91B2621E36
:101D700090B2FEF737FE21480088401C1F490880BA
:101D8000182C1ADA012D18DD0D2060431A4941186C
:101D9000681E085C012810D16A1E91B2621C90B2C4
:101DA000FEF7E0FD6A1E91B2621C90B2FEF71AFEC9
:101DB00012480088401C11490880182C1ADA0B2D93
:101DC00018DA0D2060430C494118681C085C012892
:101DD00010D16A1C91B2621C90B2FEF7C3FD6A1C5E
:101DE00091B2621C90B2FEF7FDFD04480088401CD1
:101DF0000249088070BD00000E000020080000208D
:101E000070B5064600241D480588408845431B4898
:101E100080881B49884216D118488079012812D140
:101E20000020164988712A2048812B2088810021B2
:101E3000084600F019FD0120104988712B204881C7
:101E40002A20888103E00021084600F00DFD00F003
:101E500095FE00240EE001200A4948600020086039
:101E6000304600F015FF0020064988600120886098
:101E70000860641CAC42EED370BD00005801002025
:101E8000046800000000054010B50446002C1ED177
:101E900018498871F0200880FF20413048802C20AC
:101EA00008812A2048812B20888108468088124991
:101EB000884204D00F4880881049884215D1FF20FD
:101EC00041300C490880FF20E13048800DE00120BE
:101ED00008498871FF2041300880F02048802C207C
:101EE00008812A2048812B208881002000F0A6FA52
:101EF00010BD0000580100200468000010530000CD
:101F0000FFB587B000200590049007990998451AFD
:101F100008990A98461A0798029008980190002D8F
:101F200001DD012706E0002D01D1002702E0002796
:101F3000FF436D42002E02DD0120039008E0002ED9
:101F400002D10020039003E00020C04303907642BA
:101F5000B54201DD2C4600E034460020069022E028
:101F6000019A91B2029A90B200F024F805984019B3
:101F700005900498801904900598A04205DD059805
:101F8000001B05900298C01902900498A04206DD3B
:101F90000498001B0490039901984018019006983A
:101FA000401C80B20690611C06988842D8DD0BB0B8
:101FB000F0BD000070B504460D462946204600F0ED
:101FC00053FC00F0DBFD0120074948600020086059
:101FD0000648008800F05CFE00200349886001206C
:101FE0008860086070BD000000000540000000200F
:101FF000F8B504460D4616461F462B46324629467E
:102000002046FFF77DFF3B46224629462046FFF744
:1020100077FF3B46324639462046FFF771FF3B4685
:10202000324629463046FFF76BFFF8BD70B50446CF
:102030000D4616462A49488900F084FD01202949A9
:10204000486000200860201200F022FE0020254990
:102050008860012088600860486000200860E0B265
:1020600000F016FE00201F4988600120886008608B
:102070001B49888900F066FD01201A49486000204C
:102080000860281200F004FE002016498860012034
:1020900088600860486000200860E8B200F0F8FD41
:1020A0000020104988600120886008600020486096
:1020B00008600B49088900F0EBFD002009498860A1
:1020C000012088600860486000200860304600F009
:1020D000DFFD00200349886001208860086070BD32
:1020E0005801002000000540FFB583B005460E46AC
:1020F000174600200190781B401C80B201903446A6
:1021000020E02146284600F0AFFB00F037FD00201C
:10211000029011E001200E494860002008600C98F0
:1021200000F0B6FD00200A49886001208860086040
:102130000298401C80B20290019902988842E9DB23
:10214000601C84B206988442DBDD07B0F0BD00005D
:102150000000054010B59B4800F0D8FF0121002089
:1021600000F014FD974800F0D1FF002000F05AF96C
:102170000446954895498880084680889249884257
:102180007ED1CF2000F0DEFC002000F0BFFCC1209B
:1021900000F0BCFC302000F0B9FCED2000F0D2FCD7
:1021A000642000F0B3FC032000F0B0FC122000F02B
:1021B000ADFC812000F0AAFCE82000F0C3FC8520E3
:1021C00000F0A4FC102000F0A1FC7A2000F09EFC9E
:1021D000CB2000F0B7FC392000F098FC2C2000F058
:1021E00095FC002000F092FC342000F08FFC0220CF
:1021F00000F08CFCF72000F0A5FC202000F086FC0D
:10220000EA2000F09FFC002000F080FC002000F09D
:102210007DFCC02000F096FC1B2000F077FCC12064
:1022200000F090FC012000F071FCC52000F08AFC59
:10223000302000F06BFC302000F068FCC72000F07C
:1022400081FCB72000F062FC362000F07BFC4820C7
:1022500000F05CFC3A2000F075FC552000F056FCC4
:10226000B12000F06FFC002000F050FC1A2000F0BC
:102270004DFCB62000F066FC0A2000F047FC00E0B0
:1022800095E0A22000F042FCF22000F05BFC002070
:1022900000F03CFC262000F055FC012000F036FC4C
:1022A000E02000F04FFC0F2000F030FC2A2000F06E
:1022B0002DFC282000F02AFC082000F027FC0E202E
:1022C00000F024FC082000F021FC542000F01EFC4B
:1022D000A92000F01BFC432000F018FC0A2000F0AD
:1022E00015FC0F2000F012FC002000F00FFC002075
:1022F00000F00CFC002000F009FC002000F006FCBF
:10230000E12000F01FFC002000F000FC152000F090
:10231000FDFB172000F0FAFB072000F0F7FB11206F
:1023200000F0F4FB062000F0F1FB2B2000F0EEFBA8
:10233000562000F0EBFB3C2000F0E8FB052000F00D
:10234000E5FB102000F0E2FB0F2000F0DFFB3F2058
:1023500000F0DCFB3F2000F0D9FB0F2000F0D6FBA3
:102360002B2000F0EFFB002000F0D0FB002000F05D
:10237000CDFB012000F0CAFB3F2000F0C7FB2A2064
:1023800000F0E0FB002000F0C1FB002000F0BEFBED
:10239000002000F0BBFBEF2000F0B8FB112000F0A4
:1023A000D1FB0B4800F0B2FE292000F0CBFB00204F
:1023B000FFF76AFD0120074948610748FFF720FD44
:1023C00010BD0000A0252600419300005801002008
:1023D000808D5B0000000540FFFF000010B5024645
:1023E000012002E00346534318460B464C1EE1B25F
:1023F000002BF7D110BD000010B50120084948603E
:1024000000200860C86000F04BFD0446FF20F53056
:1024100000F07CFE01200249C8600860204610BD23
:102420000000054010B50446204600F08BFBFF205D
:10243000F53000F06BFEFFF7DFFF10BDF8B5054685
:1024400000240027F7488079012809D1F5488088C1
:10245000F549884204D0F3488088F449884208D17D
:10246000F048807900281DD1EE488088EF498842E5
:1024700018D12B0000F03CFE080507090B0D0F11C9
:10248000131506250DE007250BE0042509E00525B9
:1024900007E0012505E0002503E0032501E0022512
:1024A00000BF00BFDF488088E149884213D0DD4883
:1024B0008088DD4988420ED0DA488088DD4988422C
:1024C00009D0D8488088DC49884204D0D548808823
:1024D000D64988427ED12B0000F00AFE0805070A83
:1024E0000D101316191C00BF14E08020044311E0E6
:1024F000402004430EE0C02004430BE020200443AE
:1025000008E06020044305E0A020044302E0E0204E
:10251000044300BF00BFC3488088C749884202D136
:102520001B277F0200E03627BE488088C1498842C9
:102530000BD0BC488088C049884206D0B948808802
:10254000BA49884201D008200443B6488088B64979
:10255000884201D1022004432146384600F016FB90
:10256000B0488088B14988421ED0202020400028F1
:102570000DD0AC480088AB494988884214DAA94894
:1025800006884088A7490880084646800CE0A54890
:102590000088A4494988884206DDA2480688408808
:1025A000A0490880084646809E488088A249884203
:1025B0007DD19C49488900F0C5FA01209F494860B7
:1025C0000020086000F064FB00209C498860012026
:1025D000886000E00FE1086092494989491C88B28F
:1025E00000F0B0FA0120954948600020086000F032
:1025F0004FFB00209149886001208860086089496C
:102600004989891C88B200F09DFA01208B494860F5
:102610000020086083490988491E0902080C00F05F
:1026200037FB0020854988600120886008607D496B
:102630004989C91C88B200F085FA01207F494860A9
:102640000020086077490978491EC8B200F020FBD5
:1026500000207A4988600120886008607149888973
:1026600000F070FA0120754948600020086000F011
:102670000FFB00207149886001208860086069496B
:102680008989491C88B200F05DFA01206B494860D5
:102690000020086000F0FCFA0020684988600120F2
:1026A000886008605F498989891C88B200E02BE056
:1026B00000F048FA0120614948600020086059494B
:1026C0004988491E0902080C00F0E2FA00205B4923
:1026D000886001208860086052498989C91C88B2D5
:1026E00000F030FA012055494860002008604D494B
:1026F0008978491EC8B200F0CBFA00204F498860A3
:10270000012088600860ADE04649488900F01AFA67
:1027100001204A4948600020086000F0B9FA002012
:102720004649886001208860086048600020086091
:1027300000F0AEFA002041498860012088600860FE
:1027400048600020086037490988491E0902080CC2
:1027500000F09EFA002039498860012088600860F6
:102760004860002008602F490978491EC8B200F06F
:102770008FFA00203149886001208860086029496B
:10278000888900F0DFF901202C49486000200860AA
:1027900000F07EFA002029498860012088600860E6
:1027A00048600020086000F073FA00202349886028
:1027B0000120886008604860002008601949498845
:1027C000491E0902080C00F063FA00201B498860CA
:1027D00001208860086048600020086011498978FD
:1027E000491EC8B200F054FA002014498860012044
:1027F0008860086036E02B0000F07AFC0805080BC2
:102800000E102225282B3020044322E01020044300
:102810001FE0202004431CE000BF1AE038200443DE
:1028200017E0000058010020046800006319000050
:1028300041930000105300001055000000000540B7
:102840002820044305E01820044302E00820044344
:1028500000BF00BF03270120000304432146384680
:1028600000F094F9F8BD000070B504460D461E490D
:10287000488900F067F901201C4948600020086081
:10288000201200F005FA00201849886001208860B5
:102890000860486000200860E0B200F0F9F900200C
:1028A000124988600120886008600F49888900F01B
:1028B00049F901200D49486000200860281200F005
:1028C000E7F90020094988600120886008604860B5
:1028D00000200860E8B200F0DBF9002003498860BE
:1028E00001208860086070BD58010020000005408C
:1028F000FFB585B00E4617461C4602962046E217E5
:10290000520F1218D210E3175B0F1B18DB10DB00FD
:102910000094E31A01D0012300E00023D2182146DD
:10292000E30F5B185B105A43D2B20192384620384D
:10293000C7B2002558E00C2C06D10C2078432D4955
:102940004018405D049012E0102C05D138012A494E
:102950004018405D04900AE0182C06D124207843EA
:1029600026494018405D049001E009B0F0BD002008
:10297000039033E0802104980840002806D02048C6
:10298000028831460598FFF751FB08E00E980028B1
:1029900005D11C48028831460598FFF747FB04988B
:1029A0004006000E0490701C86B217484088B04262
:1029B00000DCDAE70298301AA0420BD1029E05989B
:1029C000401C80B20590104801880598814200DCC7
:1029D000CBE706E00398401CC0B203900398082898
:1029E000C8DB00BF681CC5B201988542A3DB00BFED
:1029F000BBE7000000390000743D000064430000A4
:102A0000000000200200002058010020FFB585B022
:102A10001E460E9C00200490002540E0701B401EC6
:102A2000C1B20A20FFF7DAFC014602900798FDF7D1
:102A3000E3FB0A210390FDF7DFFB0F460498002813
:102A400017D1701EA84214DD002F10D1002003946E
:102A50000090E00F0019401068430599401880B2BB
:102A60002346202202900699FFF742FF15E001203D
:102A70000490002003940090E00F00194010684378
:102A80000599401880B2029038463030C2B22346D1
:102A900006990298FFF72CFF00BF681CC5B2B5422B
:102AA000BCDB09B0F0BDFFB583B004460E460D9FF8
:102AB0000C9DE0B202900598001980B2059006982E
:102AC000801980B2069018E00598844202DB029CCF
:102AD000701986B20698864200DB14E00020009050
:102AE0003A782B4631462046FFF702FF2846E90F89
:102AF0000918491009198CB27F1C38787E2802DC2D
:102B000038782028E0DA00BF07B0F0BD10B50446E1
:102B100001200B49486000200860FF20F53000F0DC
:102B2000F5FA204600F0B4F8002005498860FF203F
:102B3000F53000F0EBFA012001498860086010BD13
:102B40000000054010B5044600200B4948600860AD
:102B5000FF20F53000F0DAFA204600F099F8002066
:102B600005498860FF20F53000F0D0FA01200249C5
:102B70008860086010BD00000000054010B50249E3
:102B80000889FFF7DFFF10BD5801002070B505462A
:102B90000C462846FFF7D6FF012007494860002071
:102BA0000860204600F074F8002003498860012086
:102BB0008860086070BD000000000540F8B506465A
:102BC0000F46002429E0002523E03019801E142838
:102BD0001DDB3019801E182819DC7819801E012889
:102BE00015DB7819801E0B2811DC3019C01E0B2351
:102BF00058430B4BC0187B19DB1EC25C7819801E32
:102C000081B23019801E80B20090FEF78DFA681CE8
:102C1000C5B2042DD9DD601CC4B2042CD3DDF8BDCF
:102C200066010020F8B506460F4600242BE000257B
:102C300025E03019801E14281FDB3019801E18284B
:102C40001BDC7819801E012817DB7819801E0B28E1
:102C500013DC3019C01E0B2358430C4BC0187B19D2
:102C6000DB1EC05C6430C2B27819801E81B230199C
:102C7000801E80B20090FEF757FA681CC5B2042D82
:102C8000D7DD601CC4B2042CD1DDF8BD6601002084
:102C9000C107C90F1F4A91618107CA0F1D49CA6147
:102CA0004107CA0F1B490A620107CA0F19494A6244
:102CB000C106CA0F17498A628106CA0F1549CA623E
:102CC0004106CA0F13490A630106CA0F11494A6334
:102CD000C105CA0F0F498A638105CA0F0D49CA632E
:102CE0004105CA0F0B490A640105CA0F09494A6424
:102CF000C104CA0F07498A648104CA0F0549CA641E
:102D00004104CA0F03490A650104CA0F01494A6513
:102D1000704700000000054070B504460D46164699
:102D2000324629462046FDF77AFE611C88B23246BB
:102D30002946FEF7E3FA70BD70B504460D46164607
:102D4000324629462046FEF72CF8611C88B23246EE
:102D50002946FEF7E3FC70BD70B505460C461646E5
:102D6000324621462846FDF75AFE601E81B23246A1
:102D70002846FEF7C3FA70BD70B505460C461646E8
:102D8000324621462846FEF70CF8601E81B23246D4
:102D90002846FEF7C3FC70BD70B505460C461646C6
:102DA000324621462846FDF73AFE601C81B2324683
:102DB0002846FEF7A3FA70BD70B505460C461646C8
:102DC000324621462846FDF7ECFF601C81B23246B0
:102DD0002846FEF7A3FC70BDF8B500241AE00125D3
:102DE00014E000210B206043284A8218681E115409
:102DF0000D20604326494018405D012804D100227F
:102E00002946601CFEF790F9681CC5B20C2DE8DB62
:102E1000601CC4B2182CE2DB1E480078042834D1B0
:102E200000201D49088014242DE0012527E01B48BF
:102E30000D266643761EB3B20D266E43761EB2B2E1
:102E40000D2666430C3EB1B20D266E430C3E00903B
:102E5000B0B2FFF749F90D266643761EB3B20D26D0
:102E60006E43761EB2B20D2666430C3EB1B20D26FD
:102E70006E430C3EB0B2FFF7BBF8681CC5B20C2D18
:102E8000D5DB601CC4B2192CCFDBF8BD6601002075
:102E90000E0000200C000020000000203084000004
:102EA0000021002008E0064A8300D258012A02D1FE
:102EB0008240521891B2401C1028F4DB084670473B
:102EC0001800054010B53F2002490860002000F0BE
:102ED00041F810BD00E100E000B501460B0000F034
:102EE00007F9172D0D0F10121314151718191A1CA6
:102EF0001D1E1F2122252628292A2D0010481DE0ED
:102F000000BF10481AE000BF00BF00BF0E4815E028
:102F100000BF00BF00BF1F2010E000BF00BF00BF08
:102F20000A480BE000BF3F20400107E000BF08480F
:102F300004E000BF00BF1F20C00200BF00BF00BDF3
:102F4000E0FF000040BC00001FF80000FF7F000011
:102F500007FC0000014908617047000000E000E044
:102F6000014948617047000000E000E001498861C4
:102F70007047000000E000E070B543480078012889
:102F800007D041480078032803D03F480078042840
:102F90002AD100240DE0012507E000210D20604327
:102FA0003A4A80184155681CC5B20C2DF5DB601CEF
:102FB000C4B2182CEFDB00240AE001210D2060438D
:102FC000324A11540D20604380180173601CC4B252
:102FD000192CF2DB002504E001212D484155681C25
:102FE000C5B20D2DF8DB4EE02748007802284AD103
:102FF00000240DE0012507E000210D206043234A55
:1030000080184155681CC5B20C2DF5DB601CC4B29C
:10301000132CEFDB13241CE0012516E0FDF796F8D6
:1030200006466421FDF7F2F8322906DB00210D2067
:103030006043164A8018415505E001210D20604388
:10304000124A80184155681CC5B20C2DE6DB601C85
:10305000C4B2182CE0DB00240AE001210D206043FB
:103060000A4A11540D20604380180173601CC4B2D9
:10307000192CF2DB002504E0012105484155681CAC
:10308000C5B20D2DF8DB70BD0C0000200E00002035
:103090004601002000B50F480088401C0D490880FB
:1030A00008460088FF21F531884207D10A48008888
:1030B000401C094908800020064908800020FFF7CD
:1030C00049FF064840680121490608430349486012
:1030D00000BD0000060000200400002000ED00E01C
:1030E000014802490860704740787D015401002082
:1030F00030B47446641E2578641CAB4204D3635D0F
:103100005B00E31830BC18471D46F8E710B50446CD
:103110000020FFF71FFF2046FFF722FF0020FFF7E8
:1031200025FF0720FFF716FF30BF10BD86B0002433
:10313000002003900290FFF7C5FE0020FE490861C1
:10314000FE48FFF7E3FF0120FB490861FFF702F8A3
:103150000020012189078862B1E3F948FEF750FE9B
:103160001F20C002F7490880F7A018210B46C8228B
:10317000009101900A211E20FFF795FCF6A018216E
:103180000B46C8220091019028213220FFF78BFCCA
:103190000020EC490880F3A018210B46C8220091BA
:1031A00001905A211420FFF77EFCF2A018210B4653
:1031B000C8220091019078211420FFF774FC1F2091
:1031C000E0490880EFA018210B46C8220091019029
:1031D000A0211720FFF767FCEEA018210B46C8229C
:1031E0000091019011461720FFF75DFC2AE00120B5
:1031F0008007406AFF2804D101208007808C84B2B8
:1032000020E001208007406AFF281BD001208007B2
:10321000808C84B2FE2C03D10120E249087012E0B8
:10322000FD2C03D10220DF4908700CE0FB2C03D1F8
:103230000320DC49087006E0F72C03D10420D949AB
:10324000087000E0D3E700BFBD48FEF7D9FD1F209E
:10325000C002BC490880BCA018210B46C8220091BE
:1032600001900A211E20FFF71EFCCFA018210B465B
:10327000C8220091019028213220FFF714FC002081
:10328000B0490880B7A018210B46C82200910190D0
:1032900046211420FFF707FCC7A018210B46C822BF
:1032A0000091019064211420FFF7FDFB1F20A54928
:1032B0000880C5A018210B46C822009101908C21DE
:1032C0001720FFF7F0FBC4A018210B46C82200917D
:1032D0000190B4215020FFF7E6FB2DE0012080078C
:1032E000406AFF2804D101208007808C84B223E04B
:1032F00001208007406AFF281ED001208007808CB3
:1033000084B2FE2C06D10120B54908700F20B549C2
:10331000088012E0FD2C06D10220B14908700A2075
:10332000B049088009E0FB2C06D10320AC490870A5
:103330000520AC49088000E0D0E700BF8048FEF7D8
:103340005FFD00207F490880A7490880FFF714FE31
:10335000FFF742FDFF234133AA2200211046FEF76A
:10336000CFFDFCF7F3FE13210190FCF74FFF491C42
:10337000CFB20020734908809CA012210B46C822BE
:10338000009101900A211E20FFF78DFB3A460D2186
:103390000520FDF7B3FF97A00A210B46C822009134
:1033A000019087216420FFF77EFB1F20654908807C
:1033B0000A20032300908C480288A5216420FFF78F
:1033C00025FB00205F4908808CA00A210B46C822FB
:1033D00000910190D2216420FFF765FB1F2059491D
:1033E000088070480078012806D002280FD00328F2
:1033F00018D004282CD120E082A00A210B46C82234
:1034000000910190F0216420FFF74DFB20E07FA0A8
:103410000A210B46C82200910190F0216420FFF799
:1034200042FB15E07BA00A210B46C82200910190C7
:10343000F0216420FFF737FB0AE078A00A210B4651
:10344000C82200910190F0216420FFF72CFB00BFFF
:1034500000BF00203B49088072A00A210B468C2245
:1034600000910190D2216420FFF71DFB1F203549F8
:1034700008805B480078012804D002280DD003287A
:1034800021D115E069A00A210B46C82200910190C4
:10349000F0216420FFF707FB15E066A00A210B4628
:1034A000C82200910190F0216420FFF7FCFA0AE0A5
:1034B00049A00A210B46C82200910190F021642006
:1034C000FFF7F1FA00BF00BF00201E4908803A460E
:1034D0000D210520FDF7A3FAE5E101260520059061
:1034E00030480078032803D02E480078042809D1FA
:1034F000FCF72CFE16210190FCF788FE491CC8B28F
:10350000049008E0FCF722FE0D210190FCF77EFEFE
:10351000491CC8B204900D210520049AFDF7EEFE67
:103520003A4630460599FDF7E9FE3A463046059998
:10353000FEF7F4F8002081E000000540404B4C000D
:10354000FFFF000000000020507265737320427579
:1035500074746F6E20546F0053656C656374204DF6
:103560006F64650020202031202020202020203280
:1035700000000000202020332020202020202034A4
:10358000000000004E6F726D616C202020426C6F55
:10359000636B00004578706C6F6465202048696437
:1035A000696E67000C00002053656C656374204CE5
:1035B0006576656C0000000020202020202020334C
:1035C0002020202020200000202045617379202029
:1035D000204D6964646C65004861726400000000FD
:1035E0000D0000200A000020080000204E4558541D
:1035F0000000000053434F52450000004D4F44452A
:10360000000000004E6F726D616C0000426C6F63D1
:103610006B0000004578706C6F64650048696469F0
:103620006E6700004C4556454C00000045617379BB
:10363000000000004D6964646C650000A0490880CA
:10364000A0480078042803D1142F01DB012500E0F5
:103650000025F8E0012D03D130460599FFF7E2FA85
:1036600001208007808C84B2FF2C72D0FB2C4DD0BF
:1036700004DCEF2C6ED0F72C24D16CE0FD2C22D092
:10368000FE2C1FD101233A4630460599FDF700F97B
:10369000002817D1012D03D130460599FFF78EFA86
:1036A0003A4630460599FFF737FB3A4630460599CA
:1036B000FFF742FB701CC6B2012D03D130460599BD
:1036C000FFF7B0FA5FE002233A4630460599FDF76E
:1036D000DFF8002819D1012D03D130460599FFF7F5
:1036E0006DFA3A4630460599FFF736FB3A463046C2
:1036F0000599FFF741FB0598401EC0B20590012DCA
:1037000003D130460599FFF78DFA3CE003233A4692
:1037100030460599FDF7BCF8002819D1012D03D1D9
:1037200030460599FFF74AFA3A4630460599FFF7C1
:1037300033FB3A4630460599FFF73EFB0598401C9F
:10374000C0B20590012D03D130460599FFF76AFA02
:1037500019E019E016E004233A4630460599FDF7D2
:1037600097F800280DD13A4630460599FCF752FEED
:103770003A4630460599FCF72DFF3846FDF705F827
:10378000074600E000BF00BF4D4800884E49098849
:10379000884258DB00204A49088001233A463046D7
:1037A0000599FDF775F801282DD1012D03D130467B
:1037B0000599FFF703FA142F08D14248007803282F
:1037C00004D130460599FEF72FFA0CE0FDF714F806
:1037D000C0B20290012E04D10298002801D101202C
:1037E0000390002002901F203849088012200323F4
:1037F000009037480288A521BD20FFF707F9002077
:103800003249088020E001233A4630460599FDF709
:103810003FF8002817D1012D03D130460599FFF755
:10382000CDF93A4630460599FFF776FA3A463046E2
:103830000599FFF781FA701CC6B2012D03D13046FD
:103840000599FFF7EFF905E700BF0398012824D198
:103850001F20C0021D4908801EA018210B46C82247
:103860000091019086211920FFF71DF91DA0182154
:103870000B46C82200910190AE211E20FFF713F9DC
:103880001CA018210B46C82200910190D6211E20B1
:10389000FFF709F90020039006E00D210520049AA6
:1038A000FDF7BDF8049F18E600BF06E00120800781
:1038B000808C84B2EF2C00D100E0F7E700BF4CE42D
:1038C000040000200C0000200A000020000000205E
:1038D00008000020596F7520417265204C6F736598
:1038E0002100000050726573732022504C41592210
:1038F0000000000020546F205265737461727400E0
:1039000000000000000000000000000000000000B7
:103910003F40000000000000000030004000300088
:103920004000000009000BC03D000BC03D00090035
:1039300018C024407FE0224031800000180024C0DD
:103940001B000D803240018003801C4027401C80FA
:103950000740004010006000000000000000000070
:103960000000000000001F80204040200000402098
:1039700020401F8000000000090006001F80060094
:1039800009000000040004003F800400040000005F
:1039900000100060000000000000000004000400AF
:1039A00004000400040000000000004000000000CB
:1039B00000000000002001C00600380040000000A8
:1039C0001F802040204020401F8000000000104049
:1039D0003FC000400000000018C0214022402440A9
:1039E0001840000010802040244024401B8000002C
:1039F00002000D0011003FC0014000003C80244047
:103A000024402440238000001F8024402440344070
:103A1000038000003000200027C038002000000094
:103A20001B802440244024401B8000001C0022C036
:103A3000224022401F8000000000000008400000DB
:103A40000000000000000000046000000000000012
:103A5000000004000A001100208040400900090015
:103A6000090009000900000000004040208011000A
:103A70000A00040018002000234024001800000061
:103A80001F802040274029401F400000004007C001
:103A900039000F0001C0004020403FC024402440B6
:103AA0001B8000001F80204020402040308000000C
:103AB00020403FC0204020401F80000020403FC0E9
:103AC00024402E4030C0000020403FC024402E0043
:103AD000300000000F0010802040224033800200A0
:103AE00020403FC0040004003FC020402040204050
:103AF0003FC02040204000000060202020203FC028
:103B00002000200020403FC024400B0030C0204057
:103B100020403FC020400040004000C03FC03C006B
:103B200003C03C003FC0000020403FC00C402300C9
:103B30003FC020001F802040204020401F80000008
:103B400020403FC024402400180000001F80214076
:103B5000214020E01FA0000020403FC0244026005C
:103B600019C0004018C02440244022403180000089
:103B7000300020403FC020403000000020003F8047
:103B8000004000403F80200020003E0001C00700B0
:103B900038002000380007C03C0007C03800000093
:103BA000204039C0060039C02040000020003840C5
:103BB00007C0384020000000304021C02640384077
:103BC00020C00000000000007FE0402040200000F6
:103BD000000070000C000380004000000000402046
:103BE00040207FE000000000000020004000200096
:103BF0000000000000100010001000100010001065
:103C000000000000400000000000000000000280F2
:103C10000540054003C0004020003FC00440044070
:103C200003800000000003800440044006400000C0
:103C300000000380044024403FC000400000038097
:103C40000540054003400000000004401FC0244020
:103C500024402000000002E00550055006500420DA
:103C600020403FC00440040003C000400000044066
:103C700027C000400000000000100010041027E0E2
:103C80000000000020403FC00140070004C0044085
:103C9000204020403FC000400040000007C004001A
:103CA00007C0040003C00000044007C00440040033
:103CB00003C0004000000380044004400380000073
:103CC000041007F00450044003800000000003804B
:103CD0000440045007F00010044007C002400400F4
:103CE00004000000000006400540054004C000003C
:103CF000000004001F800440004000000400078012
:103D00000040044007C000400400070004C00180D8
:103D100006000400060001C0070001C00600000004
:103D2000044006C0010006C0044000000410071053
:103D300004E00180060004000000044005C00640C5
:103D4000044000000000000004007BE04020000070
:103D5000000000000000FFF0000000000000402014
:103D60007BE00400000000004000800040002000D4
:103D700020004000000000000000000000000000E3
:103D8000000000000000000000001FCC000C00003C
:103D90000000000000000800300060000800300053
:103DA00060000000022003FC1E20022003FC1E20F5
:103DB0000220000000000E1811043FFF10840C7850
:103DC000000000000F0010840F3800C0077818842E
:103DD0000078000000780F8410C411240E9800E4CD
:103DE0000084000808006800700000000000000067
:103DF0000000000000000000000007E01818200488
:103E000040020000000040022004181807E00000F3
:103E1000000000000240024001800FF001800240DB
:103E2000024000000080008000800FF800800080C9
:103E3000008000000001000D000E000000000000E6
:103E400000000000000000800080008000800080F2
:103E5000008000800000000C000C0000000000004A
:103E6000000000000000000600180060018006004D
:103E700018002000000007F00808100410040808CB
:103E800007F000000000080408041FFC0004000400
:103E90000000000000000E0C1014102410441184C7
:103EA0000E0C000000000C181004110411041288FC
:103EB0000C700000000000E00320042408241FFC14
:103EC0000024000000001F981084110411041088C1
:103ED00010700000000007F0088811041104188811
:103EE0000070000000001C00100010FC13001C00FB
:103EF0001000000000000E3811441084108411449A
:103F00000E38000000000700088C10441044088898
:103F100007F00000000000000000030C030C00008C
:103F20000000000000000000000101060000000089
:103F3000000000000000008001400220041008087A
:103F40001004000002200220022002200220022091
:103F500002200000000010040808041002200140A4
:103F60000080000000000E001200100C106C108089
:103F70000F00000003E00C1813E4142417C40828F1
:103F800007D000000004003C03C41C40074000E4CC
:103F9000001C000410041FFC1104110411040E88FD
:103FA0000070000003E00C18100410041004100846
:103FB0001C10000010041FFC10041004100408085A
:103FC00007F0000010041FFC1104110417C41004B2
:103FD0000818000010041FFC1104110017C0100085
:103FE0000800000003E00C181004100410441C78B2
:103FF0000040000010041FFC10840080008010842A
:104000001FFC10040000100410041FFC1004100416
:104010000000000000030001100110011FFE10004D
:104020001000000010041FFC110403801464181C0D
:104030001004000010041FFC10040004000400041D
:10404000000C000010041FFC1F0000FC1F001FFCE0
:104050001004000010041FFC0C04030000E0101802
:104060001FFC100007F008081004100410040808D2
:1040700007F0000010041FFC1084108010801080D6
:104080000F00000007F0081810241024101C080A64
:1040900007F2000010041FFC1104110011C01130C0
:1040A0000E0C000400000E1C110410841084104437
:1040B0001C3800001800100010041FFC1004100031
:1040C0001800000010001FF8100400040004100481
:1040D0001FF8100010001E0011E0001C007013807B
:1040E0001C0010001FC0103C00E01F0000E0103C4E
:1040F0001FC000001004180C163401C001C0163493
:10410000180C100410001C00130400FC13041C0005
:10411000100000000804101C1064108413041C0418
:10412000101800000000000000007FFE4002400266
:1041300040020000000030000C0003800060001C02
:104140000003000000004002400240027FFE000029
:10415000000000000000000020004000400040007F
:104160002000000000010001000100010001000129
:10417000000100010000400040002000000000009D
:1041800000000000000000980124014401440144A3
:1041900000FC000410001FFC0088010401040088DA
:1041A0000070000000000070008801040104010498
:1041B000008800000000007000880104010411085C
:1041C0001FFC0004000000F80144014401440144C4
:1041D00000C800000000010401040FFC11041104D8
:1041E00011001800000000D601290129012901C988
:1041F0000106000010041FFC0084010001000104FE
:1042000000FC000400000104190419FC000400046F
:10421000000000000000000300010101190119FE67
:104220000000000010041FFC0024004001B4010C39
:10423000010400000000100410041FFC000400042E
:1042400000000000010401FC0104010001FC010464
:10425000010000FC010401FC0084010001000104D4
:1042600000FC0004000000F8010401040104010442
:1042700000F80000010101FF00850104010400882D
:1042800000700000000000700088010401040105B6
:1042900001FF00010104010401FC0084010401008C
:1042A00001800000000000CC01240124012401242D
:1042B0000198000000000100010007F8010401045A
:1042C00000000000010001F80004000400040108DF
:1042D00001FC0004010001800170000C001001606D
:1042E0000180010001F0010C003001C00030010C20
:1042F00001F0010000000104018C00740170018CC8
:1043000001040000010101810171000E001801602B
:104310000180010000000184010C0134014401848A
:10432000010C0000000000000000000001003EFC45
:10433000400240020000000000000000FFFF0000FB
:10434000000000000000400240023EFC01000000AE
:10435000000000000000600080008000400040007D
:10436000200020000000000000000000000000000D
:10437000000000000000000000000000000000003D
:10438000000000000000000000000000000000002D
:10439000000000000000000F80380FFE380F80384A
:1043A000000000000000000000000000000000000D
:1043B00000000100000600000C0000380000310081
:1043C000000600000C000038000030000000000073
:1043D0000000000061800067F807F980006180003C
:1043E00061800061800061800067F807F9800061EA
:1043F0008000000000000000000001C0E003E0F0C9
:104400000630080418081FFFFE040E080787F00393
:1044100081E000000000000001F000060C00040430
:1044200008060C7001F9C0000E00003BE000EC181B
:10443000070808040C180003E00000000001E00079
:1044400007F003F818041C0804170807E1D003C09C
:10445000E00023B0003C080020080000100000002D
:104460000000000100003100003200001C000000CC
:10447000000000000000000000000000000000003C
:10448000000000000000000000000000000000002C
:10449000000000007F0001FFC00780F00C00181032
:1044A00000042000020000000000002000021000B4
:1044B000040C00180780F001FFC0007F000000001E
:1044C00000000000000000000000000000000000EC
:1044D0004200006600006600003C0000180003FF78
:1044E000C0001800003C00006600006600004200AA
:1044F000000000000800000800000800000800009C
:10450000080001FFC00008000008000008000008C3
:10451000000008000000000000010000310000322F
:1045200000001C000000000000000000000000006F
:10453000000000000000000000000000080000086B
:104540000000080000080000080000080000080043
:104550000008000008000008000000000000000043
:1045600000000000380000380000380000000000A3
:10457000000000000000000000000000000000003B
:1045800000000000000600001C0000700001800018
:104590000E0000380000C0000700001C00003000C2
:1045A00000000000000000007F8001FFE003807039
:1045B00006001804000804000806001803807001B3
:1045C000FFE0007F8000000000000000000001000C
:1045D0000801000801000803FFF807FFF8000008C1
:1045E00000000800000800000000000000000001BA
:1045F000C03802C0580400980401180402180404CA
:1046000018061C1803F81801E0F80000000000006C
:1046100000000001C0E003C0F00400080408080422
:10462000080806180803F41801E7F00001E000008C
:1046300000000000000000000300000D0000110059
:1046400000610000810803010807FFF80FFFF80070
:1046500001080001080000000000000000E007FC65
:10466000D0060808061008061008061008061838B4
:10467000060FF00607C00000000000000000000068
:104680003F8001FFE0038430020818041008041082
:1046900008041008071810030FF00007C0000000FE
:1046A00000000000000003C0000700000600000634
:1046B00000F80607F806180006E0000700000600EC
:1046C0000000000000000001E1E003F7F0063410F4
:1046D000041808041808040C08040C08061618032B
:1046E000F3F001C1E000000000000000F80003FC4E
:1046F0003003063804020804020804020804041007
:104700000308F001FFC0007F00000000000000006F
:104710000000000000000000000000007038007081
:1047200038007038000000000000000000000000A9
:104730000000000000000000000000000000000079
:10474000301A00301C0000000000000000000000D3
:10475000000000000000000000000008000014003D
:10476000002200004100008080010040020020047F
:1047700000100800080000000000000021000021D7
:104780000000210000210000210000210000210084
:1047900000210000210000210000000000000000B6
:1047A0000000080008040010020020010040008002
:1047B00080004100002200001400000800000000FA
:1047C00000000003C00004C0000400000800380816
:1047D0000F380808380810000C300007E00003C04C
:1047E00000000000000000003F8000FFE003807038
:1047F000020F1006708804C088048308047F8802B2
:10480000C09003012000FE400000080000180001D5
:10481000F8003E0801C20007020007E20000FE00A7
:10482000001FC80001F80000380000080400080755
:10483000FFF807FFF804080804080804080804083B
:104840000806180803F41801E7F00001E000000072
:10485000000000003F8001FFE003807002001804A8
:104860000008040008040008040010060020078067
:10487000C000000004000807FFF807FFF804000864
:1048800004000804000804001802001003807001EE
:10489000FFE0007F8000000004000807FFF807FF2A
:1048A000F8040808040808040808040808043E0876
:1048B000040008060018010060000000040008075A
:1048C000FFF807FFF80408080408000408000408BB
:1048D00000043E0006000006000001800000000009
:1048E000000000003F8001FFE00380700600180414
:1048F00000080402080402080203F00783F0000223
:104900000000020004000807FFF807FFF804080889
:10491000000800000800000800000800040808075C
:10492000FFF807FFF8040008000000000000040082
:104930000804000804000807FFF807FFF80400084F
:10494000040008040008000000000000000000004F
:10495000000600000700000104000104000104003B
:104960000307FFFE07FFFC04000004000004000032
:1049700004000807FFF807FFF8040C0800180000FF
:104980003E0004C7800503C80600F8040038040090
:104990001800000804000807FFF807FFF8040008E3
:1049A00000000800000800000800000800000800DF
:1049B000001800006000000004000807FFF80780EE
:1049C0000807FC00007FC00003F80007C000780063
:1049D00007800807FFF807FFF8040008040008072D
:1049E000FFF807000803C00000E000003800001EC8
:1049F000000007000001C00400F007FFF8040000F9
:104A0000000000007F8001FFE003807006001804B2
:104A1000000804000806001803003001FFE0007FD2
:104A20008000000004000807FFF807FFF8040408EE
:104A3000040400040400040400040400060C000341
:104A4000F80001F000000000000000007F8001FF7E
:104A5000E00380700600880400880400C806003C5B
:104A600003003E01FFE6007F840000000400080709
:104A7000FFF807FFF8040808040800040C00040FFE
:104A800000040BC00610F003F03801E00800000835
:104A900000000001E0F803F03006301004180804AC
:104AA0001808040C08040C080206180207F0078115
:104AB000E000000001800006000004000004000087
:104AC00004000807FFF807FFF804000804000004CA
:104AD000000006000001800004000007FFE007FF5F
:104AE000F00400180000080000080000080000089A
:104AF00000000804001007FFE004000004000006A6
:104B0000000007E00007FE00041FE00001F80000BD
:104B1000380001E0043E0007C00006000004000069
:104B200004000007E00007FFC0041FF80007C007EB
:104B3000F80007FF80043FF80007C004F8000700F2
:104B40000004000000000004000806001807C078F8
:104B500005F1C8003E00001F800463E80780F806E6
:104B60000018040008000000040000060000078090
:104B70000007E008047C08001FF80007F800180888
:104B800004E0080700000600000400000000000127
:104B900000080600380400F80403E8040F08047C49
:104BA0000805F00807C008070018040060000000AE
:104BB0000000000000000000000000000000003FB6
:104BC000FFFE200002200002200002200002200040
:104BD00002000000000000000000080000070000C4
:104BE00000C0000038000006000001C000003000D6
:104BF000000E000001000000000000000000200086
:104C0000022000022000022000022000023FFFFEDE
:104C10000000000000000000000000000000000094
:104C2000000000000008000010000030000020001C
:104C3000003000001000000800000000000000002C
:104C4000000001000001000001000001000001005F
:104C5000000100000100000100000100000100004F
:104C60000100000100000000000000000020000022
:104C700020000010000010000000000000000000F4
:104C800000000000000000000000000000F000191B
:104C9000F8001B1800220800260800240800241031
:104CA000003FF8001FF80000080000180000000492
:104CB000000007FFF80FFFF0001818001008002090
:104CC00008002008003018001FF0000FC00000008E
:104CD0000000000007C0001FF0001830002008008E
:104CE0002008002008003C08001C100000600000A4
:104CF000000000000000000007C0001FF00038188E
:104D000000200800200800200804101007FFF80FFA
:104D1000FFF000001000000000000000000000078D
:104D2000C0001FF0001230002218002208002208E4
:104D3000003208001E10000E2000000000000000DD
:104D4000200000200800200801FFF803FFF80620DB
:104D500008042008042008072000030000000000C9
:104D600000000000000E000E6E001FF30031B100C5
:104D700020B10020B1003191001F13002E1E002031
:104D80000E00300000000004000807FFF80FFFF8D5
:104D9000001008002000002000002008003FF8005C
:104DA0001FF80000080000000000000000000020C4
:104DB00008002008002008063FF8063FF800000819
:104DC00000000800000800000000000000000000D3
:104DD000000000000300000300200100200100206B
:104DE00003063FFE063FFC0000000000000000003C
:104DF00000000004000807FFF80FFFF8000188001A
:104E00000300002FC00038F8002038002008000000
:104E10000800000000000000000004000804000872
:104E200004000807FFF80FFFF80000080000080062
:104E30000008000000000000002008003FF8003FCC
:104E4000F8001008002000003FF8003FF8001008AC
:104E5000002000003FF8003FF800000800000000BC
:104E60002008003FF8003FF8001008001000002064
:104E700000002008003FF8001FF8000008000000B4
:104E80000000000007C0000FF000183000300800DC
:104E90002008002008003008001830000FF000073C
:104EA000C0000000000000002001003FFF003FFFA5
:104EB00000101100200900200800200800303800F0
:104EC0001FF0000FC00000000000000007C0001F1E
:104ED000F0003818002008002008002009001011F8
:104EE000001FFF003FFF000001000000002008003D
:104EF0002008002008003FF8003FF80008080010D4
:104F000008002008002000003000003000000000F1
:104F1000000000000000000C78001E18003308009C
:104F200023080021080021880021980030F0003873
:104F300060000000000000002000002000002000B1
:104F400000FFF003FFF80020080020080020080000
:104F50000030000000000000000000002000003FC2
:104F6000F0007FF800001800000800000800201082
:104F7000003FF8007FF0000010000000000000007B
:104F80002000003000003C00003F800023F00000C3
:104F900078000070002380003C00003000002000FA
:104FA000002000003C00003FE00023F80000E0008B
:104FB0002700003E00003FE00021F80001E0003E35
:104FC0000000200000000000200800200800383801
:104FD000003E680027800003C8002CF80038380025
:104FE0002018002008000000000000002000003011
:104FF00003003C01003F830023EC0000700023808D
:10500000003C000020000020000000000000000024
:1050100000000038080020380020F80023E8002FA6
:1050200088003E08003808002018000070000000CA
:105030000000000000000000000000000000000070
:1050400008000014001FF7FC3000062000020000DA
:105050000000000000000000000000000000000050
:10506000000000000000FFFFFF0000000000000043
:105070000000000000000000000000000000200010
:10508000023000061FF7FC001400000800000000BA
:1050900000000000000000000000000000000018F8
:1050A00000006000004000004000002000001000F0
:1050B000000800000400000400000C0000100000C4
:1050C000E05000000000002058010000BE03000076
:1050D000F850000058010020680A00000401000098
:1050E00021A3FFFFB2010AFD010D092B0DA901113A
:0850F000050040787D0100007D
:04000005000000C136
:00000001FF
